{
  "_format": "hh-sol-artifact-1",
  "contractName": "Marketplace",
  "sourceName": "contracts/Marketplace.sol",
  "abi": [
    {
      "inputs": [
        {
          "internalType": "address",
          "name": "_tokenERC20",
          "type": "address"
        }
      ],
      "stateMutability": "nonpayable",
      "type": "constructor"
    },
    {
      "inputs": [
        {
          "internalType": "address",
          "name": "owner",
          "type": "address"
        }
      ],
      "name": "OwnableInvalidOwner",
      "type": "error"
    },
    {
      "inputs": [
        {
          "internalType": "address",
          "name": "account",
          "type": "address"
        }
      ],
      "name": "OwnableUnauthorizedAccount",
      "type": "error"
    },
    {
      "inputs": [],
      "name": "ReentrancyGuardReentrantCall",
      "type": "error"
    },
    {
      "anonymous": false,
      "inputs": [
        {
          "indexed": true,
          "internalType": "address",
          "name": "seller",
          "type": "address"
        },
        {
          "indexed": true,
          "internalType": "address",
          "name": "nftContract",
          "type": "address"
        },
        {
          "indexed": true,
          "internalType": "uint256",
          "name": "tokenId",
          "type": "uint256"
        }
      ],
      "name": "ListingCanceled",
      "type": "event"
    },
    {
      "anonymous": false,
      "inputs": [
        {
          "indexed": true,
          "internalType": "address",
          "name": "seller",
          "type": "address"
        },
        {
          "indexed": true,
          "internalType": "address",
          "name": "nftContract",
          "type": "address"
        },
        {
          "indexed": true,
          "internalType": "uint256",
          "name": "tokenId",
          "type": "uint256"
        },
        {
          "indexed": false,
          "internalType": "uint256",
          "name": "price",
          "type": "uint256"
        }
      ],
      "name": "NFTListed",
      "type": "event"
    },
    {
      "anonymous": false,
      "inputs": [
        {
          "indexed": true,
          "internalType": "address",
          "name": "buyer",
          "type": "address"
        },
        {
          "indexed": true,
          "internalType": "address",
          "name": "seller",
          "type": "address"
        },
        {
          "indexed": true,
          "internalType": "address",
          "name": "nftContract",
          "type": "address"
        },
        {
          "indexed": false,
          "internalType": "uint256",
          "name": "tokenId",
          "type": "uint256"
        },
        {
          "indexed": false,
          "internalType": "uint256",
          "name": "price",
          "type": "uint256"
        }
      ],
      "name": "NFTSold",
      "type": "event"
    },
    {
      "anonymous": false,
      "inputs": [
        {
          "indexed": true,
          "internalType": "address",
          "name": "previousOwner",
          "type": "address"
        },
        {
          "indexed": true,
          "internalType": "address",
          "name": "newOwner",
          "type": "address"
        }
      ],
      "name": "OwnershipTransferred",
      "type": "event"
    },
    {
      "anonymous": false,
      "inputs": [
        {
          "indexed": true,
          "internalType": "address",
          "name": "seller",
          "type": "address"
        },
        {
          "indexed": false,
          "internalType": "bool",
          "name": "preferDeferred",
          "type": "bool"
        }
      ],
      "name": "PaymentPreferenceChanged",
      "type": "event"
    },
    {
      "anonymous": false,
      "inputs": [
        {
          "indexed": true,
          "internalType": "address",
          "name": "seller",
          "type": "address"
        },
        {
          "indexed": true,
          "internalType": "address",
          "name": "nftContract",
          "type": "address"
        },
        {
          "indexed": true,
          "internalType": "uint256",
          "name": "tokenId",
          "type": "uint256"
        },
        {
          "indexed": false,
          "internalType": "uint256",
          "name": "oldPrice",
          "type": "uint256"
        },
        {
          "indexed": false,
          "internalType": "uint256",
          "name": "newPrice",
          "type": "uint256"
        }
      ],
      "name": "PriceUpdated",
      "type": "event"
    },
    {
      "anonymous": false,
      "inputs": [
        {
          "indexed": true,
          "internalType": "address",
          "name": "seller",
          "type": "address"
        },
        {
          "indexed": false,
          "internalType": "uint256",
          "name": "amount",
          "type": "uint256"
        }
      ],
      "name": "Withdrawal",
      "type": "event"
    },
    {
      "inputs": [
        {
          "internalType": "address",
          "name": "nftContract",
          "type": "address"
        },
        {
          "internalType": "uint256",
          "name": "tokenId",
          "type": "uint256"
        }
      ],
      "name": "buyNFT",
      "outputs": [],
      "stateMutability": "nonpayable",
      "type": "function"
    },
    {
      "inputs": [
        {
          "internalType": "address",
          "name": "nftContract",
          "type": "address"
        },
        {
          "internalType": "uint256",
          "name": "tokenId",
          "type": "uint256"
        }
      ],
      "name": "cancelListing",
      "outputs": [],
      "stateMutability": "nonpayable",
      "type": "function"
    },
    {
      "inputs": [
        {
          "internalType": "address",
          "name": "nftContract",
          "type": "address"
        },
        {
          "internalType": "uint256",
          "name": "tokenId",
          "type": "uint256"
        }
      ],
      "name": "getListing",
      "outputs": [
        {
          "components": [
            {
              "internalType": "address",
              "name": "seller",
              "type": "address"
            },
            {
              "internalType": "address",
              "name": "nftContract",
              "type": "address"
            },
            {
              "internalType": "uint256",
              "name": "price",
              "type": "uint256"
            },
            {
              "internalType": "bool",
              "name": "active",
              "type": "bool"
            }
          ],
          "internalType": "struct Marketplace.Listing",
          "name": "",
          "type": "tuple"
        }
      ],
      "stateMutability": "view",
      "type": "function"
    },
    {
      "inputs": [
        {
          "internalType": "address",
          "name": "seller",
          "type": "address"
        }
      ],
      "name": "getPaymentPreference",
      "outputs": [
        {
          "internalType": "bool",
          "name": "",
          "type": "bool"
        }
      ],
      "stateMutability": "view",
      "type": "function"
    },
    {
      "inputs": [
        {
          "internalType": "address",
          "name": "seller",
          "type": "address"
        }
      ],
      "name": "getPendingWithdrawals",
      "outputs": [
        {
          "internalType": "uint256",
          "name": "",
          "type": "uint256"
        }
      ],
      "stateMutability": "view",
      "type": "function"
    },
    {
      "inputs": [
        {
          "internalType": "address",
          "name": "nftContract",
          "type": "address"
        },
        {
          "internalType": "uint256",
          "name": "tokenId",
          "type": "uint256"
        }
      ],
      "name": "isListed",
      "outputs": [
        {
          "internalType": "bool",
          "name": "",
          "type": "bool"
        }
      ],
      "stateMutability": "view",
      "type": "function"
    },
    {
      "inputs": [
        {
          "internalType": "address",
          "name": "nftContract",
          "type": "address"
        },
        {
          "internalType": "uint256",
          "name": "tokenId",
          "type": "uint256"
        },
        {
          "internalType": "uint256",
          "name": "price",
          "type": "uint256"
        }
      ],
      "name": "listNFT",
      "outputs": [],
      "stateMutability": "nonpayable",
      "type": "function"
    },
    {
      "inputs": [
        {
          "internalType": "address",
          "name": "",
          "type": "address"
        },
        {
          "internalType": "uint256",
          "name": "",
          "type": "uint256"
        }
      ],
      "name": "listings",
      "outputs": [
        {
          "internalType": "address",
          "name": "seller",
          "type": "address"
        },
        {
          "internalType": "address",
          "name": "nftContract",
          "type": "address"
        },
        {
          "internalType": "uint256",
          "name": "price",
          "type": "uint256"
        },
        {
          "internalType": "bool",
          "name": "active",
          "type": "bool"
        }
      ],
      "stateMutability": "view",
      "type": "function"
    },
    {
      "inputs": [],
      "name": "owner",
      "outputs": [
        {
          "internalType": "address",
          "name": "",
          "type": "address"
        }
      ],
      "stateMutability": "view",
      "type": "function"
    },
    {
      "inputs": [
        {
          "internalType": "address",
          "name": "",
          "type": "address"
        }
      ],
      "name": "pendingWithdrawals",
      "outputs": [
        {
          "internalType": "uint256",
          "name": "",
          "type": "uint256"
        }
      ],
      "stateMutability": "view",
      "type": "function"
    },
    {
      "inputs": [
        {
          "internalType": "address",
          "name": "",
          "type": "address"
        }
      ],
      "name": "preferDeferred",
      "outputs": [
        {
          "internalType": "bool",
          "name": "",
          "type": "bool"
        }
      ],
      "stateMutability": "view",
      "type": "function"
    },
    {
      "inputs": [],
      "name": "renounceOwnership",
      "outputs": [],
      "stateMutability": "nonpayable",
      "type": "function"
    },
    {
      "inputs": [],
      "name": "retirarGanancias",
      "outputs": [],
      "stateMutability": "nonpayable",
      "type": "function"
    },
    {
      "inputs": [
        {
          "internalType": "bool",
          "name": "_preferDeferred",
          "type": "bool"
        }
      ],
      "name": "setPaymentPreference",
      "outputs": [],
      "stateMutability": "nonpayable",
      "type": "function"
    },
    {
      "inputs": [],
      "name": "tokenERC20",
      "outputs": [
        {
          "internalType": "contract IERC20",
          "name": "",
          "type": "address"
        }
      ],
      "stateMutability": "view",
      "type": "function"
    },
    {
      "inputs": [
        {
          "internalType": "address",
          "name": "newOwner",
          "type": "address"
        }
      ],
      "name": "transferOwnership",
      "outputs": [],
      "stateMutability": "nonpayable",
      "type": "function"
    },
    {
      "inputs": [
        {
          "internalType": "address",
          "name": "nftContract",
          "type": "address"
        },
        {
          "internalType": "uint256",
          "name": "tokenId",
          "type": "uint256"
        },
        {
          "internalType": "uint256",
          "name": "newPrice",
          "type": "uint256"
        }
      ],
      "name": "updatePrice",
      "outputs": [],
      "stateMutability": "nonpayable",
      "type": "function"
    }
  ],
  "bytecode": "0x60a060405234801561001057600080fd5b506040516131563803806131568339818101604052810190610032919061028f565b336001600081905550600073ffffffffffffffffffffffffffffffffffffffff168173ffffffffffffffffffffffffffffffffffffffff16036100ad5760006040517f1e4fbdf70000000000000000000000000000000000000000000000000000000081526004016100a491906102cb565b60405180910390fd5b6100bc8161016660201b60201c565b50600073ffffffffffffffffffffffffffffffffffffffff168173ffffffffffffffffffffffffffffffffffffffff160361012c576040517f08c379a000000000000000000000000000000000000000000000000000000000815260040161012390610369565b60405180910390fd5b8073ffffffffffffffffffffffffffffffffffffffff1660808173ffffffffffffffffffffffffffffffffffffffff168152505050610389565b6000600160009054906101000a900473ffffffffffffffffffffffffffffffffffffffff16905081600160006101000a81548173ffffffffffffffffffffffffffffffffffffffff021916908373ffffffffffffffffffffffffffffffffffffffff1602179055508173ffffffffffffffffffffffffffffffffffffffff168173ffffffffffffffffffffffffffffffffffffffff167f8be0079c531659141344cd1fd0a4f28419497f9722a3daafe3b4186f6b6457e060405160405180910390a35050565b600080fd5b600073ffffffffffffffffffffffffffffffffffffffff82169050919050565b600061025c82610231565b9050919050565b61026c81610251565b811461027757600080fd5b50565b60008151905061028981610263565b92915050565b6000602082840312156102a5576102a461022c565b5b60006102b38482850161027a565b91505092915050565b6102c581610251565b82525050565b60006020820190506102e060008301846102bc565b92915050565b600082825260208201905092915050565b7f4d61726b6574706c6163653a20546f6b656e20455243323020696e76616c696460008201527f6f00000000000000000000000000000000000000000000000000000000000000602082015250565b60006103536021836102e6565b915061035e826102f7565b604082019050919050565b6000602082019050818103600083015261038281610346565b9050919050565b608051612d9d6103b96000396000818161065e01528181610b2c01528181610cc801526115bc0152612d9d6000f3fe608060405234801561001057600080fd5b506004361061010a5760003560e01c8063ad05f1b4116100a2578063d118626811610071578063d118626814610292578063e57d6fb7146102c2578063f2fde38b146102de578063f340c0d0146102fa578063f3f437031461032a5761010a565b8063ad05f1b414610220578063b212c51c1461023c578063b2ddee0614610246578063cdb3cd25146102625761010a565b806388700d1c116100de57806388700d1c146101985780638da5cb5b146101c85780639d143e8e146101e6578063a82ba76f146102045761010a565b806207df301461010f5780634fd35d9a14610142578063715018a61461015e5780637fd6219114610168575b600080fd5b61012960048036038101906101249190612087565b61035a565b6040516101399493929190612100565b60405180910390f35b61015c60048036038101906101579190612171565b6103e4565b005b61016661048c565b005b610182600480360381019061017d919061219e565b6104a0565b60405161018f91906121cb565b60405180910390f35b6101b260048036038101906101ad9190612087565b6104f6565b6040516101bf9190612268565b60405180910390f35b6101d0610632565b6040516101dd9190612283565b60405180910390f35b6101ee61065c565b6040516101fb91906122fd565b60405180910390f35b61021e60048036038101906102199190612087565b610680565b005b61023a60048036038101906102359190612318565b610f72565b005b6102446114e6565b005b610260600480360381019061025b9190612087565b6116f0565b005b61027c60048036038101906102779190612087565b611995565b60405161028991906121cb565b60405180910390f35b6102ac60048036038101906102a7919061219e565b611a00565b6040516102b991906121cb565b60405180910390f35b6102dc60048036038101906102d79190612318565b611a20565b005b6102f860048036038101906102f3919061219e565b611d0c565b005b610314600480360381019061030f919061219e565b611d92565b604051610321919061236b565b60405180910390f35b610344600480360381019061033f919061219e565b611ddb565b604051610351919061236b565b60405180910390f35b6002602052816000526040600020602052806000526040600020600091509150508060000160009054906101000a900473ffffffffffffffffffffffffffffffffffffffff16908060010160009054906101000a900473ffffffffffffffffffffffffffffffffffffffff16908060020154908060030160009054906101000a900460ff16905084565b80600460003373ffffffffffffffffffffffffffffffffffffffff1673ffffffffffffffffffffffffffffffffffffffff16815260200190815260200160002060006101000a81548160ff0219169083151502179055503373ffffffffffffffffffffffffffffffffffffffff167f5747f82777f106b600f591130ada7e13db8fc7be7db860b7dc5221f10c7ab16f8260405161048191906121cb565b60405180910390a250565b610494611df3565b61049e6000611e7a565b565b6000600460008373ffffffffffffffffffffffffffffffffffffffff1673ffffffffffffffffffffffffffffffffffffffff16815260200190815260200160002060009054906101000a900460ff169050919050565b6104fe611f98565b600260008473ffffffffffffffffffffffffffffffffffffffff1673ffffffffffffffffffffffffffffffffffffffff16815260200190815260200160002060008381526020019081526020016000206040518060800160405290816000820160009054906101000a900473ffffffffffffffffffffffffffffffffffffffff1673ffffffffffffffffffffffffffffffffffffffff1673ffffffffffffffffffffffffffffffffffffffff1681526020016001820160009054906101000a900473ffffffffffffffffffffffffffffffffffffffff1673ffffffffffffffffffffffffffffffffffffffff1673ffffffffffffffffffffffffffffffffffffffff168152602001600282015481526020016003820160009054906101000a900460ff161515151581525050905092915050565b6000600160009054906101000a900473ffffffffffffffffffffffffffffffffffffffff16905090565b7f000000000000000000000000000000000000000000000000000000000000000081565b610688611f40565b8181600260008373ffffffffffffffffffffffffffffffffffffffff1673ffffffffffffffffffffffffffffffffffffffff168152602001908152602001600020600082815260200190815260200160002060030160009054906101000a900460ff1661072a576040517f08c379a000000000000000000000000000000000000000000000000000000000815260040161072190612409565b60405180910390fd5b6000600260008673ffffffffffffffffffffffffffffffffffffffff1673ffffffffffffffffffffffffffffffffffffffff16815260200190815260200160002060008581526020019081526020016000206040518060800160405290816000820160009054906101000a900473ffffffffffffffffffffffffffffffffffffffff1673ffffffffffffffffffffffffffffffffffffffff1673ffffffffffffffffffffffffffffffffffffffff1681526020016001820160009054906101000a900473ffffffffffffffffffffffffffffffffffffffff1673ffffffffffffffffffffffffffffffffffffffff1673ffffffffffffffffffffffffffffffffffffffff168152602001600282015481526020016003820160009054906101000a900460ff16151515158152505090503373ffffffffffffffffffffffffffffffffffffffff16816000015173ffffffffffffffffffffffffffffffffffffffff16036108cc576040517f08c379a00000000000000000000000000000000000000000000000000000000081526004016108c39061249b565b60405180910390fd5b6000859050816000015173ffffffffffffffffffffffffffffffffffffffff168173ffffffffffffffffffffffffffffffffffffffff16636352211e876040518263ffffffff1660e01b8152600401610925919061236b565b602060405180830381865afa158015610942573d6000803e3d6000fd5b505050506040513d601f19601f8201168201806040525081019061096691906124d0565b73ffffffffffffffffffffffffffffffffffffffff16146109bc576040517f08c379a00000000000000000000000000000000000000000000000000000000081526004016109b39061256f565b60405180910390fd5b3073ffffffffffffffffffffffffffffffffffffffff168173ffffffffffffffffffffffffffffffffffffffff1663081812fc876040518263ffffffff1660e01b8152600401610a0c919061236b565b602060405180830381865afa158015610a29573d6000803e3d6000fd5b505050506040513d601f19601f82011682018060405250810190610a4d91906124d0565b73ffffffffffffffffffffffffffffffffffffffff161480610aeb57508073ffffffffffffffffffffffffffffffffffffffff1663e985e9c58360000151306040518363ffffffff1660e01b8152600401610aa992919061258f565b602060405180830381865afa158015610ac6573d6000803e3d6000fd5b505050506040513d601f19601f82011682018060405250810190610aea91906125cd565b5b610b2a576040517f08c379a0000000000000000000000000000000000000000000000000000000008152600401610b2190612692565b60405180910390fd5b7f000000000000000000000000000000000000000000000000000000000000000073ffffffffffffffffffffffffffffffffffffffff166323b872dd333085604001516040518463ffffffff1660e01b8152600401610b8b939291906126b2565b6020604051808303816000875af1158015610baa573d6000803e3d6000fd5b505050506040513d601f19601f82011682018060405250810190610bce91906125cd565b610c0d576040517f08c379a0000000000000000000000000000000000000000000000000000000008152600401610c049061275b565b60405180910390fd5b60046000836000015173ffffffffffffffffffffffffffffffffffffffff1673ffffffffffffffffffffffffffffffffffffffff16815260200190815260200160002060009054906101000a900460ff1615610cc657816040015160036000846000015173ffffffffffffffffffffffffffffffffffffffff1673ffffffffffffffffffffffffffffffffffffffff1681526020019081526020016000206000828254610cba91906127aa565b92505081905550610dac565b7f000000000000000000000000000000000000000000000000000000000000000073ffffffffffffffffffffffffffffffffffffffff1663a9059cbb836000015184604001516040518363ffffffff1660e01b8152600401610d299291906127de565b6020604051808303816000875af1158015610d48573d6000803e3d6000fd5b505050506040513d601f19601f82011682018060405250810190610d6c91906125cd565b610dab576040517f08c379a0000000000000000000000000000000000000000000000000000000008152600401610da290612879565b60405180910390fd5b5b600260008773ffffffffffffffffffffffffffffffffffffffff1673ffffffffffffffffffffffffffffffffffffffff1681526020019081526020016000206000868152602001908152602001600020600080820160006101000a81549073ffffffffffffffffffffffffffffffffffffffff02191690556001820160006101000a81549073ffffffffffffffffffffffffffffffffffffffff021916905560028201600090556003820160006101000a81549060ff021916905550508073ffffffffffffffffffffffffffffffffffffffff1663b88d4fde836000015133886040518463ffffffff1660e01b8152600401610eaa939291906128d0565b600060405180830381600087803b158015610ec457600080fd5b505af1158015610ed8573d6000803e3d6000fd5b505050508573ffffffffffffffffffffffffffffffffffffffff16826000015173ffffffffffffffffffffffffffffffffffffffff163373ffffffffffffffffffffffffffffffffffffffff167f1b81ea9818518fffa07ee623cfd9ce8af1900f3e0c918f2ca4fcfc9745cdc165888660400151604051610f5a92919061291a565b60405180910390a450505050610f6e611f86565b5050565b82600073ffffffffffffffffffffffffffffffffffffffff168173ffffffffffffffffffffffffffffffffffffffff1603610fe2576040517f08c379a0000000000000000000000000000000000000000000000000000000008152600401610fd9906129b5565b60405180910390fd5b8160008111611026576040517f08c379a000000000000000000000000000000000000000000000000000000000815260040161101d90612a47565b60405180910390fd5b60008590503373ffffffffffffffffffffffffffffffffffffffff168173ffffffffffffffffffffffffffffffffffffffff16636352211e876040518263ffffffff1660e01b815260040161107b919061236b565b602060405180830381865afa158015611098573d6000803e3d6000fd5b505050506040513d601f19601f820116820180604052508101906110bc91906124d0565b73ffffffffffffffffffffffffffffffffffffffff1614611112576040517f08c379a000000000000000000000000000000000000000000000000000000000815260040161110990612ad9565b60405180910390fd5b600260008773ffffffffffffffffffffffffffffffffffffffff1673ffffffffffffffffffffffffffffffffffffffff168152602001908152602001600020600086815260200190815260200160002060030160009054906101000a900460ff16156111b3576040517f08c379a00000000000000000000000000000000000000000000000000000000081526004016111aa90612b6b565b60405180910390fd5b3073ffffffffffffffffffffffffffffffffffffffff168173ffffffffffffffffffffffffffffffffffffffff1663081812fc876040518263ffffffff1660e01b8152600401611203919061236b565b602060405180830381865afa158015611220573d6000803e3d6000fd5b505050506040513d601f19601f8201168201806040525081019061124491906124d0565b73ffffffffffffffffffffffffffffffffffffffff1614806112de57508073ffffffffffffffffffffffffffffffffffffffff1663e985e9c533306040518363ffffffff1660e01b815260040161129c92919061258f565b602060405180830381865afa1580156112b9573d6000803e3d6000fd5b505050506040513d601f19601f820116820180604052508101906112dd91906125cd565b5b61131d576040517f08c379a000000000000000000000000000000000000000000000000000000000815260040161131490612c23565b60405180910390fd5b60405180608001604052803373ffffffffffffffffffffffffffffffffffffffff1681526020018773ffffffffffffffffffffffffffffffffffffffff16815260200185815260200160011515815250600260008873ffffffffffffffffffffffffffffffffffffffff1673ffffffffffffffffffffffffffffffffffffffff168152602001908152602001600020600087815260200190815260200160002060008201518160000160006101000a81548173ffffffffffffffffffffffffffffffffffffffff021916908373ffffffffffffffffffffffffffffffffffffffff16021790555060208201518160010160006101000a81548173ffffffffffffffffffffffffffffffffffffffff021916908373ffffffffffffffffffffffffffffffffffffffff1602179055506040820151816002015560608201518160030160006101000a81548160ff021916908315150217905550905050848673ffffffffffffffffffffffffffffffffffffffff163373ffffffffffffffffffffffffffffffffffffffff167fbeab3a2bb824b124a8a1eb465eec003338d61b414db132d37e9b3a984fdcf010876040516114d6919061236b565b60405180910390a4505050505050565b6114ee611f40565b6000600360003373ffffffffffffffffffffffffffffffffffffffff1673ffffffffffffffffffffffffffffffffffffffff16815260200190815260200160002054905060008111611575576040517f08c379a000000000000000000000000000000000000000000000000000000000815260040161156c90612cb5565b60405180910390fd5b6000600360003373ffffffffffffffffffffffffffffffffffffffff1673ffffffffffffffffffffffffffffffffffffffff168152602001908152602001600020819055507f000000000000000000000000000000000000000000000000000000000000000073ffffffffffffffffffffffffffffffffffffffff1663a9059cbb33836040518363ffffffff1660e01b81526004016116159291906127de565b6020604051808303816000875af1158015611634573d6000803e3d6000fd5b505050506040513d601f19601f8201168201806040525081019061165891906125cd565b611697576040517f08c379a000000000000000000000000000000000000000000000000000000000815260040161168e9061275b565b60405180910390fd5b3373ffffffffffffffffffffffffffffffffffffffff167f7fcf532c15f0a6db0bd6d0e038bea71d30d808c7d98cb3bf7268a95bf5081b65826040516116dd919061236b565b60405180910390a2506116ee611f86565b565b81813373ffffffffffffffffffffffffffffffffffffffff16600260008473ffffffffffffffffffffffffffffffffffffffff1673ffffffffffffffffffffffffffffffffffffffff168152602001908152602001600020600083815260200190815260200160002060000160009054906101000a900473ffffffffffffffffffffffffffffffffffffffff1673ffffffffffffffffffffffffffffffffffffffff16146117d3576040517f08c379a00000000000000000000000000000000000000000000000000000000081526004016117ca90612d47565b60405180910390fd5b8383600260008373ffffffffffffffffffffffffffffffffffffffff1673ffffffffffffffffffffffffffffffffffffffff168152602001908152602001600020600082815260200190815260200160002060030160009054906101000a900460ff16611875576040517f08c379a000000000000000000000000000000000000000000000000000000000815260040161186c90612409565b60405180910390fd5b600260008773ffffffffffffffffffffffffffffffffffffffff1673ffffffffffffffffffffffffffffffffffffffff1681526020019081526020016000206000868152602001908152602001600020600080820160006101000a81549073ffffffffffffffffffffffffffffffffffffffff02191690556001820160006101000a81549073ffffffffffffffffffffffffffffffffffffffff021916905560028201600090556003820160006101000a81549060ff02191690555050848673ffffffffffffffffffffffffffffffffffffffff163373ffffffffffffffffffffffffffffffffffffffff167ffb87149f10f1ffda9c1df55fae0d68fe643c8be0790eec2f859205ed312cd68b60405160405180910390a4505050505050565b6000600260008473ffffffffffffffffffffffffffffffffffffffff1673ffffffffffffffffffffffffffffffffffffffff168152602001908152602001600020600083815260200190815260200160002060030160009054906101000a900460ff16905092915050565b60046020528060005260406000206000915054906101000a900460ff1681565b8060008111611a64576040517f08c379a0000000000000000000000000000000000000000000000000000000008152600401611a5b90612a47565b60405180910390fd5b83833373ffffffffffffffffffffffffffffffffffffffff16600260008473ffffffffffffffffffffffffffffffffffffffff1673ffffffffffffffffffffffffffffffffffffffff168152602001908152602001600020600083815260200190815260200160002060000160009054906101000a900473ffffffffffffffffffffffffffffffffffffffff1673ffffffffffffffffffffffffffffffffffffffff1614611b47576040517f08c379a0000000000000000000000000000000000000000000000000000000008152600401611b3e90612d47565b60405180910390fd5b8585600260008373ffffffffffffffffffffffffffffffffffffffff1673ffffffffffffffffffffffffffffffffffffffff168152602001908152602001600020600082815260200190815260200160002060030160009054906101000a900460ff16611be9576040517f08c379a0000000000000000000000000000000000000000000000000000000008152600401611be090612409565b60405180910390fd5b6000600260008a73ffffffffffffffffffffffffffffffffffffffff1673ffffffffffffffffffffffffffffffffffffffff168152602001908152602001600020600089815260200190815260200160002060020154905086600260008b73ffffffffffffffffffffffffffffffffffffffff1673ffffffffffffffffffffffffffffffffffffffff16815260200190815260200160002060008a815260200190815260200160002060020181905550878973ffffffffffffffffffffffffffffffffffffffff163373ffffffffffffffffffffffffffffffffffffffff167f9a3f414f907ddb77231900d221b663199d0a42096ca010e25f0bb7292c409b4e848b604051611cf992919061291a565b60405180910390a4505050505050505050565b611d14611df3565b600073ffffffffffffffffffffffffffffffffffffffff168173ffffffffffffffffffffffffffffffffffffffff1603611d865760006040517f1e4fbdf7000000000000000000000000000000000000000000000000000000008152600401611d7d9190612283565b60405180910390fd5b611d8f81611e7a565b50565b6000600360008373ffffffffffffffffffffffffffffffffffffffff1673ffffffffffffffffffffffffffffffffffffffff168152602001908152602001600020549050919050565b60036020528060005260406000206000915090505481565b611dfb611f90565b73ffffffffffffffffffffffffffffffffffffffff16611e19610632565b73ffffffffffffffffffffffffffffffffffffffff1614611e7857611e3c611f90565b6040517f118cdaa7000000000000000000000000000000000000000000000000000000008152600401611e6f9190612283565b60405180910390fd5b565b6000600160009054906101000a900473ffffffffffffffffffffffffffffffffffffffff16905081600160006101000a81548173ffffffffffffffffffffffffffffffffffffffff021916908373ffffffffffffffffffffffffffffffffffffffff1602179055508173ffffffffffffffffffffffffffffffffffffffff168173ffffffffffffffffffffffffffffffffffffffff167f8be0079c531659141344cd1fd0a4f28419497f9722a3daafe3b4186f6b6457e060405160405180910390a35050565b600260005403611f7c576040517f3ee5aeb500000000000000000000000000000000000000000000000000000000815260040160405180910390fd5b6002600081905550565b6001600081905550565b600033905090565b6040518060800160405280600073ffffffffffffffffffffffffffffffffffffffff168152602001600073ffffffffffffffffffffffffffffffffffffffff168152602001600081526020016000151581525090565b600080fd5b600073ffffffffffffffffffffffffffffffffffffffff82169050919050565b600061201e82611ff3565b9050919050565b61202e81612013565b811461203957600080fd5b50565b60008135905061204b81612025565b92915050565b6000819050919050565b61206481612051565b811461206f57600080fd5b50565b6000813590506120818161205b565b92915050565b6000806040838503121561209e5761209d611fee565b5b60006120ac8582860161203c565b92505060206120bd85828601612072565b9150509250929050565b6120d081612013565b82525050565b6120df81612051565b82525050565b60008115159050919050565b6120fa816120e5565b82525050565b600060808201905061211560008301876120c7565b61212260208301866120c7565b61212f60408301856120d6565b61213c60608301846120f1565b95945050505050565b61214e816120e5565b811461215957600080fd5b50565b60008135905061216b81612145565b92915050565b60006020828403121561218757612186611fee565b5b60006121958482850161215c565b91505092915050565b6000602082840312156121b4576121b3611fee565b5b60006121c28482850161203c565b91505092915050565b60006020820190506121e060008301846120f1565b92915050565b6121ef81612013565b82525050565b6121fe81612051565b82525050565b61220d816120e5565b82525050565b60808201600082015161222960008501826121e6565b50602082015161223c60208501826121e6565b50604082015161224f60408501826121f5565b5060608201516122626060850182612204565b50505050565b600060808201905061227d6000830184612213565b92915050565b600060208201905061229860008301846120c7565b92915050565b6000819050919050565b60006122c36122be6122b984611ff3565b61229e565b611ff3565b9050919050565b60006122d5826122a8565b9050919050565b60006122e7826122ca565b9050919050565b6122f7816122dc565b82525050565b600060208201905061231260008301846122ee565b92915050565b60008060006060848603121561233157612330611fee565b5b600061233f8682870161203c565b935050602061235086828701612072565b925050604061236186828701612072565b9150509250925092565b600060208201905061238060008301846120d6565b92915050565b600082825260208201905092915050565b7f4d61726b6574706c6163653a2045737465204e4654206e6f2065737461206c6960008201527f737461646f000000000000000000000000000000000000000000000000000000602082015250565b60006123f3602583612386565b91506123fe82612397565b604082019050919050565b60006020820190508181036000830152612422816123e6565b9050919050565b7f4d61726b6574706c6163653a204e6f2070756564657320636f6d70726172207460008201527f752070726f70696f204e46540000000000000000000000000000000000000000602082015250565b6000612485602c83612386565b915061249082612429565b604082019050919050565b600060208201905081810360008301526124b481612478565b9050919050565b6000815190506124ca81612025565b92915050565b6000602082840312156124e6576124e5611fee565b5b60006124f4848285016124bb565b91505092915050565b7f4d61726b6574706c6163653a20456c2076656e6465646f72207961206e6f206560008201527f732070726f706965746172696f2064656c204e46540000000000000000000000602082015250565b6000612559603583612386565b9150612564826124fd565b604082019050919050565b600060208201905081810360008301526125888161254c565b9050919050565b60006040820190506125a460008301856120c7565b6125b160208301846120c7565b9392505050565b6000815190506125c781612145565b92915050565b6000602082840312156125e3576125e2611fee565b5b60006125f1848285016125b8565b91505092915050565b7f4d61726b6574706c6163653a20456c20636f6e747261746f207961206e6f206560008201527f737461206170726f6261646f2070617261207472616e7366657269722065737460208201527f65204e4654000000000000000000000000000000000000000000000000000000604082015250565b600061267c604583612386565b9150612687826125fa565b606082019050919050565b600060208201905081810360008301526126ab8161266f565b9050919050565b60006060820190506126c760008301866120c7565b6126d460208301856120c7565b6126e160408301846120d6565b949350505050565b7f4d61726b6574706c6163653a205472616e73666572656e63696120646520746f60008201527f6b656e732045524332302066616c6c6964610000000000000000000000000000602082015250565b6000612745603283612386565b9150612750826126e9565b604082019050919050565b6000602082019050818103600083015261277481612738565b9050919050565b7f4e487b7100000000000000000000000000000000000000000000000000000000600052601160045260246000fd5b60006127b582612051565b91506127c083612051565b92508282019050808211156127d8576127d761277b565b5b92915050565b60006040820190506127f360008301856120c7565b61280060208301846120d6565b9392505050565b7f4d61726b6574706c6163653a205472616e73666572656e63696120646972656360008201527f746120616c2076656e6465646f722066616c6c69646100000000000000000000602082015250565b6000612863603683612386565b915061286e82612807565b604082019050919050565b6000602082019050818103600083015261289281612856565b9050919050565b600082825260208201905092915050565b50565b60006128ba600083612899565b91506128c5826128aa565b600082019050919050565b60006080820190506128e560008301866120c7565b6128f260208301856120c7565b6128ff60408301846120d6565b8181036060830152612910816128ad565b9050949350505050565b600060408201905061292f60008301856120d6565b61293c60208301846120d6565b9392505050565b7f4d61726b6574706c6163653a20436f6e747261746f204e465420696e76616c6960008201527f646f000000000000000000000000000000000000000000000000000000000000602082015250565b600061299f602283612386565b91506129aa82612943565b604082019050919050565b600060208201905081810360008301526129ce81612992565b9050919050565b7f4d61726b6574706c6163653a20456c2070726563696f2064656265207365722060008201527f6d61796f722061206365726f0000000000000000000000000000000000000000602082015250565b6000612a31602c83612386565b9150612a3c826129d5565b604082019050919050565b60006020820190508181036000830152612a6081612a24565b9050919050565b7f4d61726b6574706c6163653a204e6f206572657320656c2070726f706965746160008201527f72696f2064652065737465204e46540000000000000000000000000000000000602082015250565b6000612ac3602f83612386565b9150612ace82612a67565b604082019050919050565b60006020820190508181036000830152612af281612ab6565b9050919050565b7f4d61726b6574706c6163653a2045737465204e46542079612065737461206c6960008201527f737461646f000000000000000000000000000000000000000000000000000000602082015250565b6000612b55602583612386565b9150612b6082612af9565b604082019050919050565b60006020820190508181036000830152612b8481612b48565b9050919050565b7f4d61726b6574706c6163653a20456c20636f6e747261746f206e6f206573746160008201527f206170726f6261646f2070617261207472616e7366657269722065737465204e60208201527f4654000000000000000000000000000000000000000000000000000000000000604082015250565b6000612c0d604283612386565b9150612c1882612b8b565b606082019050919050565b60006020820190508181036000830152612c3c81612c00565b9050919050565b7f4d61726b6574706c6163653a204e6f206861792067616e616e6369617320706160008201527f7261207265746972617200000000000000000000000000000000000000000000602082015250565b6000612c9f602a83612386565b9150612caa82612c43565b604082019050919050565b60006020820190508181036000830152612cce81612c92565b9050919050565b7f4d61726b6574706c6163653a204e6f206572657320656c2076656e6465646f7260008201527f2064652065737465204e46540000000000000000000000000000000000000000602082015250565b6000612d31602c83612386565b9150612d3c82612cd5565b604082019050919050565b60006020820190508181036000830152612d6081612d24565b905091905056fea26469706673582212200b318e229445b046ab7001381d233817d8dd90a33b618eac8e8d287b49e16f8664736f6c634300081c0033",
  "linkReferences": {},
  "deployedLinkReferences": {}
}