{
  "_format": "hh-sol-artifact-1",
  "contractName": "TrinityNFTCollection",
  "sourceName": "contracts/TrinityNFTCollection.sol",
  "abi": [
    {
      "inputs": [],
      "stateMutability": "nonpayable",
      "type": "constructor"
    },
    {
      "inputs": [],
      "name": "ERC721EnumerableForbiddenBatchMint",
      "type": "error"
    },
    {
      "inputs": [
        {
          "internalType": "address",
          "name": "sender",
          "type": "address"
        },
        {
          "internalType": "uint256",
          "name": "tokenId",
          "type": "uint256"
        },
        {
          "internalType": "address",
          "name": "owner",
          "type": "address"
        }
      ],
      "name": "ERC721IncorrectOwner",
      "type": "error"
    },
    {
      "inputs": [
        {
          "internalType": "address",
          "name": "operator",
          "type": "address"
        },
        {
          "internalType": "uint256",
          "name": "tokenId",
          "type": "uint256"
        }
      ],
      "name": "ERC721InsufficientApproval",
      "type": "error"
    },
    {
      "inputs": [
        {
          "internalType": "address",
          "name": "approver",
          "type": "address"
        }
      ],
      "name": "ERC721InvalidApprover",
      "type": "error"
    },
    {
      "inputs": [
        {
          "internalType": "address",
          "name": "operator",
          "type": "address"
        }
      ],
      "name": "ERC721InvalidOperator",
      "type": "error"
    },
    {
      "inputs": [
        {
          "internalType": "address",
          "name": "owner",
          "type": "address"
        }
      ],
      "name": "ERC721InvalidOwner",
      "type": "error"
    },
    {
      "inputs": [
        {
          "internalType": "address",
          "name": "receiver",
          "type": "address"
        }
      ],
      "name": "ERC721InvalidReceiver",
      "type": "error"
    },
    {
      "inputs": [
        {
          "internalType": "address",
          "name": "sender",
          "type": "address"
        }
      ],
      "name": "ERC721InvalidSender",
      "type": "error"
    },
    {
      "inputs": [
        {
          "internalType": "uint256",
          "name": "tokenId",
          "type": "uint256"
        }
      ],
      "name": "ERC721NonexistentToken",
      "type": "error"
    },
    {
      "inputs": [
        {
          "internalType": "address",
          "name": "owner",
          "type": "address"
        },
        {
          "internalType": "uint256",
          "name": "index",
          "type": "uint256"
        }
      ],
      "name": "ERC721OutOfBoundsIndex",
      "type": "error"
    },
    {
      "anonymous": false,
      "inputs": [
        {
          "indexed": true,
          "internalType": "address",
          "name": "owner",
          "type": "address"
        },
        {
          "indexed": true,
          "internalType": "address",
          "name": "approved",
          "type": "address"
        },
        {
          "indexed": true,
          "internalType": "uint256",
          "name": "tokenId",
          "type": "uint256"
        }
      ],
      "name": "Approval",
      "type": "event"
    },
    {
      "anonymous": false,
      "inputs": [
        {
          "indexed": true,
          "internalType": "address",
          "name": "owner",
          "type": "address"
        },
        {
          "indexed": true,
          "internalType": "address",
          "name": "operator",
          "type": "address"
        },
        {
          "indexed": false,
          "internalType": "bool",
          "name": "approved",
          "type": "bool"
        }
      ],
      "name": "ApprovalForAll",
      "type": "event"
    },
    {
      "anonymous": false,
      "inputs": [
        {
          "indexed": false,
          "internalType": "uint256",
          "name": "_fromTokenId",
          "type": "uint256"
        },
        {
          "indexed": false,
          "internalType": "uint256",
          "name": "_toTokenId",
          "type": "uint256"
        }
      ],
      "name": "BatchMetadataUpdate",
      "type": "event"
    },
    {
      "anonymous": false,
      "inputs": [
        {
          "indexed": false,
          "internalType": "uint256",
          "name": "_tokenId",
          "type": "uint256"
        }
      ],
      "name": "MetadataUpdate",
      "type": "event"
    },
    {
      "anonymous": false,
      "inputs": [
        {
          "indexed": true,
          "internalType": "address",
          "name": "from",
          "type": "address"
        },
        {
          "indexed": true,
          "internalType": "address",
          "name": "to",
          "type": "address"
        },
        {
          "indexed": true,
          "internalType": "uint256",
          "name": "tokenId",
          "type": "uint256"
        }
      ],
      "name": "Transfer",
      "type": "event"
    },
    {
      "inputs": [
        {
          "internalType": "address",
          "name": "to",
          "type": "address"
        },
        {
          "internalType": "uint256",
          "name": "tokenId",
          "type": "uint256"
        }
      ],
      "name": "approve",
      "outputs": [],
      "stateMutability": "nonpayable",
      "type": "function"
    },
    {
      "inputs": [
        {
          "internalType": "address",
          "name": "owner",
          "type": "address"
        }
      ],
      "name": "balanceOf",
      "outputs": [
        {
          "internalType": "uint256",
          "name": "",
          "type": "uint256"
        }
      ],
      "stateMutability": "view",
      "type": "function"
    },
    {
      "inputs": [
        {
          "internalType": "uint256",
          "name": "tokenId",
          "type": "uint256"
        }
      ],
      "name": "getApproved",
      "outputs": [
        {
          "internalType": "address",
          "name": "",
          "type": "address"
        }
      ],
      "stateMutability": "view",
      "type": "function"
    },
    {
      "inputs": [
        {
          "internalType": "address",
          "name": "owner",
          "type": "address"
        },
        {
          "internalType": "address",
          "name": "operator",
          "type": "address"
        }
      ],
      "name": "isApprovedForAll",
      "outputs": [
        {
          "internalType": "bool",
          "name": "",
          "type": "bool"
        }
      ],
      "stateMutability": "view",
      "type": "function"
    },
    {
      "inputs": [
        {
          "internalType": "string",
          "name": "ipfsCID",
          "type": "string"
        }
      ],
      "name": "mint",
      "outputs": [
        {
          "internalType": "uint256",
          "name": "",
          "type": "uint256"
        }
      ],
      "stateMutability": "nonpayable",
      "type": "function"
    },
    {
      "inputs": [],
      "name": "name",
      "outputs": [
        {
          "internalType": "string",
          "name": "",
          "type": "string"
        }
      ],
      "stateMutability": "view",
      "type": "function"
    },
    {
      "inputs": [
        {
          "internalType": "uint256",
          "name": "tokenId",
          "type": "uint256"
        }
      ],
      "name": "ownerOf",
      "outputs": [
        {
          "internalType": "address",
          "name": "",
          "type": "address"
        }
      ],
      "stateMutability": "view",
      "type": "function"
    },
    {
      "inputs": [
        {
          "internalType": "address",
          "name": "from",
          "type": "address"
        },
        {
          "internalType": "address",
          "name": "to",
          "type": "address"
        },
        {
          "internalType": "uint256",
          "name": "tokenId",
          "type": "uint256"
        }
      ],
      "name": "safeTransferFrom",
      "outputs": [],
      "stateMutability": "nonpayable",
      "type": "function"
    },
    {
      "inputs": [
        {
          "internalType": "address",
          "name": "from",
          "type": "address"
        },
        {
          "internalType": "address",
          "name": "to",
          "type": "address"
        },
        {
          "internalType": "uint256",
          "name": "tokenId",
          "type": "uint256"
        },
        {
          "internalType": "bytes",
          "name": "data",
          "type": "bytes"
        }
      ],
      "name": "safeTransferFrom",
      "outputs": [],
      "stateMutability": "nonpayable",
      "type": "function"
    },
    {
      "inputs": [
        {
          "internalType": "address",
          "name": "operator",
          "type": "address"
        },
        {
          "internalType": "bool",
          "name": "approved",
          "type": "bool"
        }
      ],
      "name": "setApprovalForAll",
      "outputs": [],
      "stateMutability": "nonpayable",
      "type": "function"
    },
    {
      "inputs": [
        {
          "internalType": "bytes4",
          "name": "interfaceId",
          "type": "bytes4"
        }
      ],
      "name": "supportsInterface",
      "outputs": [
        {
          "internalType": "bool",
          "name": "",
          "type": "bool"
        }
      ],
      "stateMutability": "view",
      "type": "function"
    },
    {
      "inputs": [],
      "name": "symbol",
      "outputs": [
        {
          "internalType": "string",
          "name": "",
          "type": "string"
        }
      ],
      "stateMutability": "view",
      "type": "function"
    },
    {
      "inputs": [
        {
          "internalType": "uint256",
          "name": "index",
          "type": "uint256"
        }
      ],
      "name": "tokenByIndex",
      "outputs": [
        {
          "internalType": "uint256",
          "name": "",
          "type": "uint256"
        }
      ],
      "stateMutability": "view",
      "type": "function"
    },
    {
      "inputs": [
        {
          "internalType": "address",
          "name": "owner",
          "type": "address"
        },
        {
          "internalType": "uint256",
          "name": "index",
          "type": "uint256"
        }
      ],
      "name": "tokenOfOwnerByIndex",
      "outputs": [
        {
          "internalType": "uint256",
          "name": "",
          "type": "uint256"
        }
      ],
      "stateMutability": "view",
      "type": "function"
    },
    {
      "inputs": [
        {
          "internalType": "uint256",
          "name": "tokenId",
          "type": "uint256"
        }
      ],
      "name": "tokenURI",
      "outputs": [
        {
          "internalType": "string",
          "name": "",
          "type": "string"
        }
      ],
      "stateMutability": "view",
      "type": "function"
    },
    {
      "inputs": [],
      "name": "totalSupply",
      "outputs": [
        {
          "internalType": "uint256",
          "name": "",
          "type": "uint256"
        }
      ],
      "stateMutability": "view",
      "type": "function"
    },
    {
      "inputs": [
        {
          "internalType": "address",
          "name": "from",
          "type": "address"
        },
        {
          "internalType": "address",
          "name": "to",
          "type": "address"
        },
        {
          "internalType": "uint256",
          "name": "tokenId",
          "type": "uint256"
        }
      ],
      "name": "transferFrom",
      "outputs": [],
      "stateMutability": "nonpayable",
      "type": "function"
    }
  ],
  "bytecode": "0x60806040526001600b5534801561001557600080fd5b506040518060400160405280600a81526020017f5472696e6974794e4654000000000000000000000000000000000000000000008152506040518060400160405280600681526020017f5452494e46540000000000000000000000000000000000000000000000000000815250816000908161009191906102f9565b5080600190816100a191906102f9565b5050506103cb565b600081519050919050565b7f4e487b7100000000000000000000000000000000000000000000000000000000600052604160045260246000fd5b7f4e487b7100000000000000000000000000000000000000000000000000000000600052602260045260246000fd5b6000600282049050600182168061012a57607f821691505b60208210810361013d5761013c6100e3565b5b50919050565b60008190508160005260206000209050919050565b60006020601f8301049050919050565b600082821b905092915050565b6000600883026101a57fffffffffffffffffffffffffffffffffffffffffffffffffffffffffffffffff82610168565b6101af8683610168565b95508019841693508086168417925050509392505050565b6000819050919050565b6000819050919050565b60006101f66101f16101ec846101c7565b6101d1565b6101c7565b9050919050565b6000819050919050565b610210836101db565b61022461021c826101fd565b848454610175565b825550505050565b600090565b61023961022c565b610244818484610207565b505050565b5b818110156102685761025d600082610231565b60018101905061024a565b5050565b601f8211156102ad5761027e81610143565b61028784610158565b81016020851015610296578190505b6102aa6102a285610158565b830182610249565b50505b505050565b600082821c905092915050565b60006102d0600019846008026102b2565b1980831691505092915050565b60006102e983836102bf565b9150826002028217905092915050565b610302826100a9565b67ffffffffffffffff81111561031b5761031a6100b4565b5b6103258254610112565b61033082828561026c565b600060209050601f8311600181146103635760008415610351578287015190505b61035b85826102dd565b8655506103c3565b601f19841661037186610143565b60005b8281101561039957848901518255600182019150602085019450602081019050610374565b868310156103b657848901516103b2601f8916826102bf565b8355505b6001600288020188555050505b505050505050565b612b5d806103da6000396000f3fe608060405234801561001057600080fd5b506004361061010b5760003560e01c80634f6ccce7116100a2578063a22cb46511610071578063a22cb465146102de578063b88d4fde146102fa578063c87b56dd14610316578063d85d3d2714610346578063e985e9c5146103765761010b565b80634f6ccce7146102305780636352211e1461026057806370a082311461029057806395d89b41146102c05761010b565b806318160ddd116100de57806318160ddd146101aa57806323b872dd146101c85780632f745c59146101e457806342842e0e146102145761010b565b806301ffc9a71461011057806306fdde0314610140578063081812fc1461015e578063095ea7b31461018e575b600080fd5b61012a60048036038101906101259190611ea2565b6103a6565b6040516101379190611eea565b60405180910390f35b6101486103b8565b6040516101559190611f95565b60405180910390f35b61017860048036038101906101739190611fed565b61044a565b604051610185919061205b565b60405180910390f35b6101a860048036038101906101a391906120a2565b610466565b005b6101b261047c565b6040516101bf91906120f1565b60405180910390f35b6101e260048036038101906101dd919061210c565b610489565b005b6101fe60048036038101906101f991906120a2565b61058b565b60405161020b91906120f1565b60405180910390f35b61022e6004803603810190610229919061210c565b610634565b005b61024a60048036038101906102459190611fed565b610654565b60405161025791906120f1565b60405180910390f35b61027a60048036038101906102759190611fed565b6106ca565b604051610287919061205b565b60405180910390f35b6102aa60048036038101906102a5919061215f565b6106dc565b6040516102b791906120f1565b60405180910390f35b6102c8610796565b6040516102d59190611f95565b60405180910390f35b6102f860048036038101906102f391906121b8565b610828565b005b610314600480360381019061030f919061232d565b61083e565b005b610330600480360381019061032b9190611fed565b610863565b60405161033d9190611f95565b60405180910390f35b610360600480360381019061035b9190612451565b610875565b60405161036d91906120f1565b60405180910390f35b610390600480360381019061038b919061249a565b6108cd565b60405161039d9190611eea565b60405180910390f35b60006103b182610961565b9050919050565b6060600080546103c790612509565b80601f01602080910402602001604051908101604052809291908181526020018280546103f390612509565b80156104405780601f1061041557610100808354040283529160200191610440565b820191906000526020600020905b81548152906001019060200180831161042357829003601f168201915b5050505050905090565b6000610455826109c2565b5061045f82610a4a565b9050919050565b6104788282610473610a87565b610a8f565b5050565b6000600880549050905090565b600073ffffffffffffffffffffffffffffffffffffffff168273ffffffffffffffffffffffffffffffffffffffff16036104fb5760006040517f64a0ae920000000000000000000000000000000000000000000000000000000081526004016104f2919061205b565b60405180910390fd5b600061050f838361050a610a87565b610aa1565b90508373ffffffffffffffffffffffffffffffffffffffff168173ffffffffffffffffffffffffffffffffffffffff1614610585578382826040517f64283d7b00000000000000000000000000000000000000000000000000000000815260040161057c9392919061253a565b60405180910390fd5b50505050565b6000610596836106dc565b82106105db5782826040517fa57d13dc0000000000000000000000000000000000000000000000000000000081526004016105d2929190612571565b60405180910390fd5b600660008473ffffffffffffffffffffffffffffffffffffffff1673ffffffffffffffffffffffffffffffffffffffff168152602001908152602001600020600083815260200190815260200160002054905092915050565b61064f8383836040518060200160405280600081525061083e565b505050565b600061065e61047c565b82106106a4576000826040517fa57d13dc00000000000000000000000000000000000000000000000000000000815260040161069b929190612571565b60405180910390fd5b600882815481106106b8576106b761259a565b5b90600052602060002001549050919050565b60006106d5826109c2565b9050919050565b60008073ffffffffffffffffffffffffffffffffffffffff168273ffffffffffffffffffffffffffffffffffffffff160361074f5760006040517f89c62b64000000000000000000000000000000000000000000000000000000008152600401610746919061205b565b60405180910390fd5b600360008373ffffffffffffffffffffffffffffffffffffffff1673ffffffffffffffffffffffffffffffffffffffff168152602001908152602001600020549050919050565b6060600180546107a590612509565b80601f01602080910402602001604051908101604052809291908181526020018280546107d190612509565b801561081e5780601f106107f35761010080835404028352916020019161081e565b820191906000526020600020905b81548152906001019060200180831161080157829003601f168201915b5050505050905090565b61083a610833610a87565b8383610ab7565b5050565b610849848484610489565b61085d610854610a87565b85858585610c26565b50505050565b606061086e82610dd7565b9050919050565b600080600b600081548092919061088b906125f8565b91905055905061089b3382610eea565b6108c481846040516020016108b091906126ee565b604051602081830303815290604052610f08565b80915050919050565b6000600560008473ffffffffffffffffffffffffffffffffffffffff1673ffffffffffffffffffffffffffffffffffffffff16815260200190815260200160002060008373ffffffffffffffffffffffffffffffffffffffff1673ffffffffffffffffffffffffffffffffffffffff16815260200190815260200160002060009054906101000a900460ff16905092915050565b6000634906490660e01b7bffffffffffffffffffffffffffffffffffffffffffffffffffffffff1916827bffffffffffffffffffffffffffffffffffffffffffffffffffffffff191614806109bb57506109ba82610f64565b5b9050919050565b6000806109ce83610fde565b9050600073ffffffffffffffffffffffffffffffffffffffff168173ffffffffffffffffffffffffffffffffffffffff1603610a4157826040517f7e273289000000000000000000000000000000000000000000000000000000008152600401610a3891906120f1565b60405180910390fd5b80915050919050565b60006004600083815260200190815260200160002060009054906101000a900473ffffffffffffffffffffffffffffffffffffffff169050919050565b600033905090565b610a9c838383600161101b565b505050565b6000610aae8484846111e0565b90509392505050565b600073ffffffffffffffffffffffffffffffffffffffff168273ffffffffffffffffffffffffffffffffffffffff1603610b2857816040517f5b08ba18000000000000000000000000000000000000000000000000000000008152600401610b1f919061205b565b60405180910390fd5b80600560008573ffffffffffffffffffffffffffffffffffffffff1673ffffffffffffffffffffffffffffffffffffffff16815260200190815260200160002060008473ffffffffffffffffffffffffffffffffffffffff1673ffffffffffffffffffffffffffffffffffffffff16815260200190815260200160002060006101000a81548160ff0219169083151502179055508173ffffffffffffffffffffffffffffffffffffffff168373ffffffffffffffffffffffffffffffffffffffff167f17307eab39ab6107e8899845ad3d59bd9653f200f220920489ca2b5937696c3183604051610c199190611eea565b60405180910390a3505050565b60008373ffffffffffffffffffffffffffffffffffffffff163b1115610dd0578273ffffffffffffffffffffffffffffffffffffffff1663150b7a02868685856040518563ffffffff1660e01b8152600401610c859493929190612765565b6020604051808303816000875af1925050508015610cc157506040513d601f19601f82011682018060405250810190610cbe91906127c6565b60015b610d45573d8060008114610cf1576040519150601f19603f3d011682016040523d82523d6000602084013e610cf6565b606091505b506000815103610d3d57836040517f64a0ae92000000000000000000000000000000000000000000000000000000008152600401610d34919061205b565b60405180910390fd5b805181602001fd5b63150b7a0260e01b7bffffffffffffffffffffffffffffffffffffffffffffffffffffffff1916817bffffffffffffffffffffffffffffffffffffffffffffffffffffffff191614610dce57836040517f64a0ae92000000000000000000000000000000000000000000000000000000008152600401610dc5919061205b565b60405180910390fd5b505b5050505050565b6060610de2826109c2565b506000600a60008481526020019081526020016000208054610e0390612509565b80601f0160208091040260200160405190810160405280929190818152602001828054610e2f90612509565b8015610e7c5780601f10610e5157610100808354040283529160200191610e7c565b820191906000526020600020905b815481529060010190602001808311610e5f57829003601f168201915b505050505090506000610e8d6112fd565b90506000815103610ea2578192505050610ee5565b600082511115610ed7578082604051602001610ebf9291906127f3565b60405160208183030381529060405292505050610ee5565b610ee084611314565b925050505b919050565b610f0482826040518060200160405280600081525061137d565b5050565b80600a60008481526020019081526020016000209081610f2891906129c3565b507ff8e1a15aba9398e019f0b49df1a4fde98ee17ae345cb5f6b5e2c27f5033e8ce782604051610f5891906120f1565b60405180910390a15050565b60007f780e9d63000000000000000000000000000000000000000000000000000000007bffffffffffffffffffffffffffffffffffffffffffffffffffffffff1916827bffffffffffffffffffffffffffffffffffffffffffffffffffffffff19161480610fd75750610fd6826113a1565b5b9050919050565b60006002600083815260200190815260200160002060009054906101000a900473ffffffffffffffffffffffffffffffffffffffff169050919050565b80806110545750600073ffffffffffffffffffffffffffffffffffffffff168273ffffffffffffffffffffffffffffffffffffffff1614155b15611188576000611064846109c2565b9050600073ffffffffffffffffffffffffffffffffffffffff168373ffffffffffffffffffffffffffffffffffffffff16141580156110cf57508273ffffffffffffffffffffffffffffffffffffffff168173ffffffffffffffffffffffffffffffffffffffff1614155b80156110e257506110e081846108cd565b155b1561112457826040517fa9fbf51f00000000000000000000000000000000000000000000000000000000815260040161111b919061205b565b60405180910390fd5b811561118657838573ffffffffffffffffffffffffffffffffffffffff168273ffffffffffffffffffffffffffffffffffffffff167f8c5be1e5ebec7d5bd14f71427d1e84f3dd0314c0f7b2291e5b200ac8c7c3b92560405160405180910390a45b505b836004600085815260200190815260200160002060006101000a81548173ffffffffffffffffffffffffffffffffffffffff021916908373ffffffffffffffffffffffffffffffffffffffff16021790555050505050565b6000806111ee858585611483565b9050600073ffffffffffffffffffffffffffffffffffffffff168173ffffffffffffffffffffffffffffffffffffffff16036112325761122d8461169d565b611271565b8473ffffffffffffffffffffffffffffffffffffffff168173ffffffffffffffffffffffffffffffffffffffff16146112705761126f81856116e6565b5b5b600073ffffffffffffffffffffffffffffffffffffffff168573ffffffffffffffffffffffffffffffffffffffff16036112b3576112ae846117d1565b6112f2565b8473ffffffffffffffffffffffffffffffffffffffff168173ffffffffffffffffffffffffffffffffffffffff16146112f1576112f085856118a2565b5b5b809150509392505050565b606060405180602001604052806000815250905090565b606061131f826109c2565b50600061132a6112fd565b9050600081511161134a5760405180602001604052806000815250611375565b806113548461192d565b6040516020016113659291906127f3565b6040516020818303038152906040525b915050919050565b61138783836119fb565b61139c611392610a87565b6000858585610c26565b505050565b60007f80ac58cd000000000000000000000000000000000000000000000000000000007bffffffffffffffffffffffffffffffffffffffffffffffffffffffff1916827bffffffffffffffffffffffffffffffffffffffffffffffffffffffff1916148061146c57507f5b5e139f000000000000000000000000000000000000000000000000000000007bffffffffffffffffffffffffffffffffffffffffffffffffffffffff1916827bffffffffffffffffffffffffffffffffffffffffffffffffffffffff1916145b8061147c575061147b82611af4565b5b9050919050565b60008061148f84610fde565b9050600073ffffffffffffffffffffffffffffffffffffffff168373ffffffffffffffffffffffffffffffffffffffff16146114d1576114d0818486611b5e565b5b600073ffffffffffffffffffffffffffffffffffffffff168173ffffffffffffffffffffffffffffffffffffffff16146115625761151360008560008061101b565b6001600360008373ffffffffffffffffffffffffffffffffffffffff1673ffffffffffffffffffffffffffffffffffffffff168152602001908152602001600020600082825403925050819055505b600073ffffffffffffffffffffffffffffffffffffffff168573ffffffffffffffffffffffffffffffffffffffff16146115e5576001600360008773ffffffffffffffffffffffffffffffffffffffff1673ffffffffffffffffffffffffffffffffffffffff168152602001908152602001600020600082825401925050819055505b846002600086815260200190815260200160002060006101000a81548173ffffffffffffffffffffffffffffffffffffffff021916908373ffffffffffffffffffffffffffffffffffffffff160217905550838573ffffffffffffffffffffffffffffffffffffffff168273ffffffffffffffffffffffffffffffffffffffff167fddf252ad1be2c89b69c2b068fc378daa952ba7f163c4a11628f55a4df523b3ef60405160405180910390a4809150509392505050565b6008805490506009600083815260200190815260200160002081905550600881908060018154018082558091505060019003906000526020600020016000909190919091505550565b60006116f1836106dc565b90506000600760008481526020019081526020016000205490506000600660008673ffffffffffffffffffffffffffffffffffffffff1673ffffffffffffffffffffffffffffffffffffffff168152602001908152602001600020905082821461179d5760008160008581526020019081526020016000205490508082600085815260200190815260200160002081905550826007600083815260200190815260200160002081905550505b6007600085815260200190815260200160002060009055806000848152602001908152602001600020600090555050505050565b600060016008805490506117e59190612a95565b90506000600960008481526020019081526020016000205490506000600883815481106118155761181461259a565b5b9060005260206000200154905080600883815481106118375761183661259a565b5b90600052602060002001819055508160096000838152602001908152602001600020819055506009600085815260200190815260200160002060009055600880548061188657611885612ac9565b5b6001900381819060005260206000200160009055905550505050565b600060016118af846106dc565b6118b99190612a95565b905081600660008573ffffffffffffffffffffffffffffffffffffffff1673ffffffffffffffffffffffffffffffffffffffff168152602001908152602001600020600083815260200190815260200160002081905550806007600084815260200190815260200160002081905550505050565b60606000600161193c84611c22565b01905060008167ffffffffffffffff81111561195b5761195a612202565b5b6040519080825280601f01601f19166020018201604052801561198d5781602001600182028036833780820191505090505b509050600082602001820190505b6001156119f0578080600190039150507f3031323334353637383961626364656600000000000000000000000000000000600a86061a8153600a85816119e4576119e3612af8565b5b0494506000850361199b575b819350505050919050565b600073ffffffffffffffffffffffffffffffffffffffff168273ffffffffffffffffffffffffffffffffffffffff1603611a6d5760006040517f64a0ae92000000000000000000000000000000000000000000000000000000008152600401611a64919061205b565b60405180910390fd5b6000611a7b83836000610aa1565b9050600073ffffffffffffffffffffffffffffffffffffffff168173ffffffffffffffffffffffffffffffffffffffff1614611aef5760006040517f73c6ac6e000000000000000000000000000000000000000000000000000000008152600401611ae6919061205b565b60405180910390fd5b505050565b60007f01ffc9a7000000000000000000000000000000000000000000000000000000007bffffffffffffffffffffffffffffffffffffffffffffffffffffffff1916827bffffffffffffffffffffffffffffffffffffffffffffffffffffffff1916149050919050565b611b69838383611d75565b611c1d57600073ffffffffffffffffffffffffffffffffffffffff168373ffffffffffffffffffffffffffffffffffffffff1603611bde57806040517f7e273289000000000000000000000000000000000000000000000000000000008152600401611bd591906120f1565b60405180910390fd5b81816040517f177e802f000000000000000000000000000000000000000000000000000000008152600401611c14929190612571565b60405180910390fd5b505050565b600080600090507a184f03e93ff9f4daa797ed6e38ed64bf6a1f0100000000000000008310611c80577a184f03e93ff9f4daa797ed6e38ed64bf6a1f0100000000000000008381611c7657611c75612af8565b5b0492506040810190505b6d04ee2d6d415b85acef81000000008310611cbd576d04ee2d6d415b85acef81000000008381611cb357611cb2612af8565b5b0492506020810190505b662386f26fc100008310611cec57662386f26fc100008381611ce257611ce1612af8565b5b0492506010810190505b6305f5e1008310611d15576305f5e1008381611d0b57611d0a612af8565b5b0492506008810190505b6127108310611d3a576127108381611d3057611d2f612af8565b5b0492506004810190505b60648310611d5d5760648381611d5357611d52612af8565b5b0492506002810190505b600a8310611d6c576001810190505b80915050919050565b60008073ffffffffffffffffffffffffffffffffffffffff168373ffffffffffffffffffffffffffffffffffffffff1614158015611e2d57508273ffffffffffffffffffffffffffffffffffffffff168473ffffffffffffffffffffffffffffffffffffffff161480611dee5750611ded84846108cd565b5b80611e2c57508273ffffffffffffffffffffffffffffffffffffffff16611e1483610a4a565b73ffffffffffffffffffffffffffffffffffffffff16145b5b90509392505050565b6000604051905090565b600080fd5b600080fd5b60007fffffffff0000000000000000000000000000000000000000000000000000000082169050919050565b611e7f81611e4a565b8114611e8a57600080fd5b50565b600081359050611e9c81611e76565b92915050565b600060208284031215611eb857611eb7611e40565b5b6000611ec684828501611e8d565b91505092915050565b60008115159050919050565b611ee481611ecf565b82525050565b6000602082019050611eff6000830184611edb565b92915050565b600081519050919050565b600082825260208201905092915050565b60005b83811015611f3f578082015181840152602081019050611f24565b60008484015250505050565b6000601f19601f8301169050919050565b6000611f6782611f05565b611f718185611f10565b9350611f81818560208601611f21565b611f8a81611f4b565b840191505092915050565b60006020820190508181036000830152611faf8184611f5c565b905092915050565b6000819050919050565b611fca81611fb7565b8114611fd557600080fd5b50565b600081359050611fe781611fc1565b92915050565b60006020828403121561200357612002611e40565b5b600061201184828501611fd8565b91505092915050565b600073ffffffffffffffffffffffffffffffffffffffff82169050919050565b60006120458261201a565b9050919050565b6120558161203a565b82525050565b6000602082019050612070600083018461204c565b92915050565b61207f8161203a565b811461208a57600080fd5b50565b60008135905061209c81612076565b92915050565b600080604083850312156120b9576120b8611e40565b5b60006120c78582860161208d565b92505060206120d885828601611fd8565b9150509250929050565b6120eb81611fb7565b82525050565b600060208201905061210660008301846120e2565b92915050565b60008060006060848603121561212557612124611e40565b5b60006121338682870161208d565b93505060206121448682870161208d565b925050604061215586828701611fd8565b9150509250925092565b60006020828403121561217557612174611e40565b5b60006121838482850161208d565b91505092915050565b61219581611ecf565b81146121a057600080fd5b50565b6000813590506121b28161218c565b92915050565b600080604083850312156121cf576121ce611e40565b5b60006121dd8582860161208d565b92505060206121ee858286016121a3565b9150509250929050565b600080fd5b600080fd5b7f4e487b7100000000000000000000000000000000000000000000000000000000600052604160045260246000fd5b61223a82611f4b565b810181811067ffffffffffffffff8211171561225957612258612202565b5b80604052505050565b600061226c611e36565b90506122788282612231565b919050565b600067ffffffffffffffff82111561229857612297612202565b5b6122a182611f4b565b9050602081019050919050565b82818337600083830152505050565b60006122d06122cb8461227d565b612262565b9050828152602081018484840111156122ec576122eb6121fd565b5b6122f78482856122ae565b509392505050565b600082601f830112612314576123136121f8565b5b81356123248482602086016122bd565b91505092915050565b6000806000806080858703121561234757612346611e40565b5b60006123558782880161208d565b94505060206123668782880161208d565b935050604061237787828801611fd8565b925050606085013567ffffffffffffffff81111561239857612397611e45565b5b6123a4878288016122ff565b91505092959194509250565b600067ffffffffffffffff8211156123cb576123ca612202565b5b6123d482611f4b565b9050602081019050919050565b60006123f46123ef846123b0565b612262565b9050828152602081018484840111156124105761240f6121fd565b5b61241b8482856122ae565b509392505050565b600082601f830112612438576124376121f8565b5b81356124488482602086016123e1565b91505092915050565b60006020828403121561246757612466611e40565b5b600082013567ffffffffffffffff81111561248557612484611e45565b5b61249184828501612423565b91505092915050565b600080604083850312156124b1576124b0611e40565b5b60006124bf8582860161208d565b92505060206124d08582860161208d565b9150509250929050565b7f4e487b7100000000000000000000000000000000000000000000000000000000600052602260045260246000fd5b6000600282049050600182168061252157607f821691505b602082108103612534576125336124da565b5b50919050565b600060608201905061254f600083018661204c565b61255c60208301856120e2565b612569604083018461204c565b949350505050565b6000604082019050612586600083018561204c565b61259360208301846120e2565b9392505050565b7f4e487b7100000000000000000000000000000000000000000000000000000000600052603260045260246000fd5b7f4e487b7100000000000000000000000000000000000000000000000000000000600052601160045260246000fd5b600061260382611fb7565b91507fffffffffffffffffffffffffffffffffffffffffffffffffffffffffffffffff8203612635576126346125c9565b5b600182019050919050565b600081905092915050565b7f68747470733a2f2f676174657761792e70696e6174612e636c6f75642f69706660008201527f732f000000000000000000000000000000000000000000000000000000000000602082015250565b60006126a7602283612640565b91506126b28261264b565b602282019050919050565b60006126c882611f05565b6126d28185612640565b93506126e2818560208601611f21565b80840191505092915050565b60006126f98261269a565b915061270582846126bd565b915081905092915050565b600081519050919050565b600082825260208201905092915050565b600061273782612710565b612741818561271b565b9350612751818560208601611f21565b61275a81611f4b565b840191505092915050565b600060808201905061277a600083018761204c565b612787602083018661204c565b61279460408301856120e2565b81810360608301526127a6818461272c565b905095945050505050565b6000815190506127c081611e76565b92915050565b6000602082840312156127dc576127db611e40565b5b60006127ea848285016127b1565b91505092915050565b60006127ff82856126bd565b915061280b82846126bd565b91508190509392505050565b60008190508160005260206000209050919050565b60006020601f8301049050919050565b600082821b905092915050565b6000600883026128797fffffffffffffffffffffffffffffffffffffffffffffffffffffffffffffffff8261283c565b612883868361283c565b95508019841693508086168417925050509392505050565b6000819050919050565b60006128c06128bb6128b684611fb7565b61289b565b611fb7565b9050919050565b6000819050919050565b6128da836128a5565b6128ee6128e6826128c7565b848454612849565b825550505050565b600090565b6129036128f6565b61290e8184846128d1565b505050565b5b81811015612932576129276000826128fb565b600181019050612914565b5050565b601f8211156129775761294881612817565b6129518461282c565b81016020851015612960578190505b61297461296c8561282c565b830182612913565b50505b505050565b600082821c905092915050565b600061299a6000198460080261297c565b1980831691505092915050565b60006129b38383612989565b9150826002028217905092915050565b6129cc82611f05565b67ffffffffffffffff8111156129e5576129e4612202565b5b6129ef8254612509565b6129fa828285612936565b600060209050601f831160018114612a2d5760008415612a1b578287015190505b612a2585826129a7565b865550612a8d565b601f198416612a3b86612817565b60005b82811015612a6357848901518255600182019150602085019450602081019050612a3e565b86831015612a805784890151612a7c601f891682612989565b8355505b6001600288020188555050505b505050505050565b6000612aa082611fb7565b9150612aab83611fb7565b9250828203905081811115612ac357612ac26125c9565b5b92915050565b7f4e487b7100000000000000000000000000000000000000000000000000000000600052603160045260246000fd5b7f4e487b7100000000000000000000000000000000000000000000000000000000600052601260045260246000fdfea2646970667358221220b5b385a2b39cddda5276d80b5d2a748b60de4eddc6ecdc6d914a594eecbdaf2064736f6c634300081c0033",
  "linkReferences": {},
  "deployedLinkReferences": {}
}